:400000000080002011000000E9040000E904000010B500F071FAC046F8B5304C1223236000F0BEFE2E4800F0BBFF012000F0D8FE182000F0CFFD2B4A2B4B1A602B4D802604
:40004000F6052E602A4A116802230B431360294A294B1A600027294B1F60294A136808218B431360FA20C00000F066FE254800F0A7FD254A254B1A60254B264A1A608021CE
:400080008900254A1160254A1A60E0210901244A1160244A1A60C0210901234A1160234A1A6082221206224B1A60224B1F604322214B1A60033A214B1A600232204B1A6056
:4000C000013A204B1A602049082000F029FD082000F01AFD2E6011232360F8BD30001040001BB7000600008004010B400C020B4078002E402D3E00007C002E4064F02E4092
:400100006CF02E40DC050000005FEA000C0301400000014043FF00800003014040FF00800803014042FF00800403014041FF008008010B4000010B403801014030010140D4
:400140001801014004010140F90E000070B572B600223E4B1A6001323D4B1A7000240FE03C486200131959000B00411889881A5AC31858880004104300F0ACF90134E4B248
:40018000022CEDD9002411E0324EA2001319590071188D8AC88A000428430A8B498B09041143802200F09CF90134E4B2002CEBD0284920312848543000F058F9274A284BB0
:4001C0001A60284A284B1A6099231B04274A136080210905264A1160264A136081210904254A1160254A13600223254A1360254A136025490B783C22934314221343DBB25C
:400200000B70224A117816230B43DBB2137020221F4B1A60DB2212041E4B1A602D221E4B1A601E4A1E4B1A6024221E4B1A6001231D4A1360922189001C4A11601C4A13600B
:40024000FFF7EAFE00F02CF970BDC0466CF02E401C700F40701B0000F01C0000000030EE00000240033099000001024000500F4008500F4010500F4018500F4030500F4032
:400280002000104000800F4001700F4000700F40000004400800044000010440061C0300080104401801044000030440080304401803044010B5064C2378002B07D1054BE2
:4002C000002B02D0044800E000BF0123237010BD5001002000000000181B0000084B10B5002B03D00749084800E000BF07480368002B00D110BD064B002BFBD09847F9E710
:400300000000000054010020181B0000C00000200000000010B5064C23785B00054A985A00F050FB2378013303221340237010BD6C010020C400002010B54200064BD45A0E
:4003400024B20C1BA4B28000044BC158044800F0CFFE604380B210BDA4010020A001002010270000F0B5474680B4050000241AE0164F63009846DE5BFF239E434346DE53B5
:400380000A21280000F0B0FE89B2114B5B5C1E434346DE530A21280000F020FE85B2002D03D00134E4B2032CE2D90134E3B207E006495800445AFF22224342520133DBB2C5
:4003C000032BF5D904BC9046F0BDC046C4000020241B0000F8B562B600F03EFB1F4800F06FFB00F007FA00F0E5F81D4800F05CF91C4800F059F900F00DFAFA25AD002800ED
:4004000000F0C6FB022000F00FFA002000F020FA040087B20100002000F07EFA2100002000F02CFA06002100002000F055FA0A21300000F05DFE84B20B4E34802000FFF724
:4004400091FF280000F0A4FB39000020FFF774FF34802000FFF786FFCFE7C04615030000301B0000481B00009C010020F0B50025002711E0BB00C658F3B2FF22964308E0A3
:400480006A008A181478A419527822700135013BDBB2002BF4D10137072FEBD9F0BDC0460323074A1360074A136080221206064B1A600122054B1A600022054B1A607047F4
:4004C000300030403000314000003A4000033A40000E3F4010B50A00002101F014FB10BD10B501F007FB10BD10B501F0D7FA03680C2B00D1FEE7FEE770B50F4E0F4D13E060
:4005000029686B68AC68002202E001C901C30432A242FAD1E868002202E0002102C304328242FAD11035013E002EE9D101F0BCFAFFF750FFFEE7C04601000000FC1E00006F
:4005400010B50E4A136801218B43136000230AE0032B03D89A000A49505800E009489900094A885001332F2BF2D9FFF7EFFD034A116801230B43136010BDC04600001040D7
:4005800000000000E90400000000002010B500F075F810BD10B500F01DF810BD10B5044A1368802109060B431360FFF7EFFF10BD0000244010B5064B1B78002B04D1FFF7F5
:4005C000E9FF0122024B1A70FFF7E8FF10BDC0466E010020154A164B1A600023154A13601549164A1160164A16490A6007201649086016490B6006381549086015490A60CF
:40060000154A13600421154A1160154A1360154A1360154A1360154A1360154A1360154A13601268144B1A807047C0460F000002000024404000244001000A004800244007
:400640000700008000032440040324401003244044002440000224400402244050002440880E2440C80E2440480F2440080F2440C80F2440880F244070010020064A116884
:40068000064B0B40902109040B431360044B1A88044B1A607047C04600010240FFFF0FFF70010020880F244070B50500002402E000F086FC0134285D0028F9D170BDC0464C
:4006C00010B503210F2000F03DFA26490F2000F027FA0122244B1A60244B1B68002B01DA234900E02349244A13680B431360234A234B1A60234A244B1A600023234A1360F8
:40070000234A24490A6024490A6024490A688020400202430A60224A1360224A13600122214B1A60214A1168214B0B40802189050B43136002221F4B1A6000230EE09A0029
:400740001D495118802080000860580000241B494452802040001A4950500133002BEED010BDC0466109000020003A4080033A40700210537002005300003A408C000080B8
:4007800004003A400000FF0718003A401C003A400200020010003A4014003A4000033A4028023A4038023A4018023A4030003A40FEFFFFDF040F3A4080003A40A401002037
:4007C000A001002010B5094B1B68002B0CDB084B1B68002BFBDB054A1368802109060B4313600A2000F0ECF910BDC04600003A4008023A4010B5064B1B78002B04D1FFF709
:400800005FFF0122024B1A70FFF7DCFF10BDC04672010020034A1368802149020B4313607047C04604003A40020083070CD0074B1B680120184001D19307F8D4002804D08F
:400840000122024B1A6000E00020704710023A4010B5041E02D0002000F060F9002C07D1A400054B9C46644420680004000C00E0002000B210BDC04680013A4070B5040066
:400880000D00002802D0002000F048F963000F4A995A09B2691A09B20D484843002906DDA3000C4A9A58D30F9A18531006E0A300084A9A58D30F9A18521053421818A4003E
:4008C000044BE15800F014FC00B270BDA401002010270000A001002070B505000C00002802D0002000F01AF96A00084BD05A00B2201A00B2C117064A002300F009FDAD000E
:40090000044BEA58D31700F0DFFC70BDA401002080969800A001002070B504000D00002802D0002000F0FAF862000A4BD05A00B2281A00B200F062FF074900F04BFE051C5C
:40094000A400064BE05800F059FF011C281C00F027FD70BDA401002000002041A0010020014B1A681A60704710023A4010B500F020FB0B4A117820230B43DBB2137009494D
:400980000A7810231A43D2B20A70074A11780B43DBB2137000F011FBFF2000F09FF810BD92000F4091000F4090000F40014B1878C0B2704761000F40014B1878C0B2704726
:4009C00060000F40034B1B785B07FBD5024B18807047C04661000F4084100F4010B501E00E4B1B880E4B1B789B06F9D400F0E1FA0C490A78012401231A43D2B20A700A783C
:400A0000A2430A70084A11780B43DBB213701378A343137000F0D1FA10BDC046A4100F4060000F4092000F4093000F4010B51F22064B1A70FFF7D2FFFFF7B8FFFFF7BCFF21
:400A40000023034A1370034A137010BD82000F4081000F4080000F4010B5064B1B78002B04D1FFF7E3FF0122024B1A70FFF77EFF10BDC04673010020014B58647047C0465C
:400A80000000002010B5040000F093FA044A1168044B0B40A4031C43146000F08EFA10BD00E400E0FF3FFFFF0222014B1A60704700E100E00222014B1A60704780E100E06C
:400AC00010B50400FFF7F6FF2000FFF7D5FF0320FFF7D8FFFFF7E8FF10BDC046044B1B68002BFBDB0002034B1843014B186070470000014040000080024B1B680120184075
:400B00007047C0460C002E401F2318401E3B8340014A13607047C04600E100E001BE704770B504000D001F2802D90020FFF7F6FF1034A40080239B059C46644420682560F1
:400B400070BDC04670B504000E00032902D90020FFF7E4FF1F2C02D90020FFF7DFFF03252540ED00063500F024FAA408A400074B9C46644421680323AB4099430B00310050
:400B8000A9401943216000F018FA70BD00E400E010B5040006E0084B586800F001FA074B9C46644480231B029C42F4D8024B9868604300F0F5F910BDCC0000200080FFFF84
:400BC00010B5034B1B7B584300F0EAF910BDC046CC000020F0B557464E46C0B483B0040000F0E7F90190E71E2D2F74D83F4B1B78DBB29C4208D83E4B1B78DBB29A463D4B17
:400C00001B78DBB2994631E03B4B1B78DBB29C4208D83A4B1B78DBB29A46394B1B78DBB2994623E0374B1B78DBB29C4208D8364B1B78DBB29A46354B1B78DBB2994615E0E0
:400C4000334B1B78DBB29C4208D8324B1B78DBB29A46314B1B78DBB2994607E02F4B1B78DBB29A462E4B1B78DBB299462D4BDE5D2F2E09D92A2C07D919222B4B1A600520CF
:400C800000F08EF9192503E0274B1D683F231D40B54206D9234BDA5D234B1A60052000F07FF91F4B9C4664442378DBB21F4A13601F4B52461A601F4B4A461A600520FFF7F3
:400CC0007FFFB5420AD2174BDA5D174B1A60052000F066F902E00020FFF720FF019800F06CF903B00CBC91469A46F0BD40F3FF0F41F3FF0F42F3FF0F43F3FF0F44F3FF0F87
:400D000045F3FF0F46F3FF0F47F3FF0F48F3FF0F49F3FF0F4AF3FF0F4BF3FF0F4CF3FF0F4DF3FF0FE41D00002CFF0B4028FF0B401CFF0B4020FF0B4010B504000F4A1168C5
:400D400001230B4313600E4A0E4B1A600E4A1368802109020B431360002809D100200CE00120FFF72DFFFFF7C7FE002804D1013C002CF5D1102000E0002010BD60F02E4030
:400D80000220000078002E4010002E40034B1868C0231B02184000D00120704700010B4010B50D4B1A6801218A431A601A68022082431A60094A10683024A043203C2043E7
:400DC00010601068093CA043014311601A68802109060A431A6010BD00F02E4000FF2E4070B51D4B1B6801241C40002802D0012816D02BE0184B1968012291431960196823
:400E0000022081431960154B19682E3081432038014319601968093881430A431A6018E00D4B1A6802218A431A600C4A10680725A8430143116011683020814310380143FF
:400E40001160196801220A431A6002E00020FFF765FE200070BDC04600F02E4000FF2E4010B500F0A6F8044A1368C02109020B43136000F0A2F810BD00010B4010B500F0FC
:400E800098F808490A68084B1A408024E40122430A600A6813408022120213430B6000F08CF810BD00010B40FF3FFFFF70B5050000F07FF80400FFF769FF002803D0FFF7F1
:400EC000DDFF012100E0002108482840084A1568084B2B40184310601368012901D1FFF7BFFF200000F069F870BDC0460404040010020B40FBFBFBFF10B5244B1B685B07A2
:400F000015D5234B5B685B070ED5224B596A042001401F4C62688A4362605A6A82435A629B69002B00D098470420FFF7BFFF174B1B685B0518D5164B5B685B0510D5154B02
:400F4000596A8022D2001140114842688A434260596A114A0A405A62DB69002B00D098478020C000FFF7A2FF084B1B685B030CD5074B5B685B0304D5064B1B6A002B00D00C
:400F800098478020C002FFF791FF10BD10020B40E000002074010020FFFBFFFF000000000230800803D00138FDD1C046C046C0467047EFF3108072B6704780F31088704743
:400FC000044B1B681F221340082BF9D0024B18607047C0460802244040022440002243088B4274D303098B425FD3030A8B4244D3030B8B4228D3030C8B420DD3FF220902BE
:4010000012BA030C8B4202D31212090265D0030B8B4219D300E0090AC30B8B4201D3CB03C01A5241830B8B4201D38B03C01A5241430B8B4201D34B03C01A5241030B8B42BC
:4010400001D30B03C01A5241C30A8B4201D3CB02C01A5241830A8B4201D38B02C01A5241430A8B4201D34B02C01A5241030A8B4201D30B02C01A5241CDD2C3098B4201D375
:40108000CB01C01A524183098B4201D38B01C01A524143098B4201D34B01C01A524103098B4201D30B01C01A5241C3088B4201D3CB00C01A524183088B4201D38B00C01AD0
:4010C000524143088B4201D34B00C01A5241411A00D20146524110467047FFE701B5002000F0F0F802BDC0460029F7D076E7704703460B437FD4002243088B4274D30309D1
:401100008B425FD3030A8B4244D3030B8B4228D3030C8B420DD3FF22090212BA030C8B4202D31212090265D0030B8B4219D300E0090AC30B8B4201D3CB03C01A5241830B2E
:401140008B4201D38B03C01A5241430B8B4201D34B03C01A5241030B8B4201D30B03C01A5241C30A8B4201D3CB02C01A5241830A8B4201D38B02C01A5241430A8B4201D341
:401180004B02C01A5241030A8B4201D30B02C01A5241CDD2C3098B4201D3CB01C01A524183098B4201D38B01C01A524143098B4201D34B01C01A524103098B4201D30B0183
:4011C000C01A5241C3088B4201D3CB00C01A524183088B4201D38B00C01A524143088B4201D34B00C01A5241411A00D201465241104670475DE0CA0F00D04942031000D3AB
:401200004042534000229C4603098B422DD3030A8B4212D3FC22890112BA030A8B420CD3890192118B4208D3890192118B4204D389013AD0921100E08909C3098B4201D314
:40124000CB01C01A524183098B4201D38B01C01A524143098B4201D34B01C01A524103098B4201D30B01C01A5241C3088B4201D3CB00C01A524183088B4201D38B00C01A0E
:401280005241D9D243088B4201D34B00C01A5241411A00D20146634652415B10104601D34042002B00D54942704763465B1000D3404201B5002000F005F802BD0029F8D067
:4012C00016E770477047C046002B15D1002A13D1002906DB01DC002806D00020C043410802E080210906002007B4024801A14018029003BDD1FFFFFF03B4684601B5029887
:4013000000F032F8019B9E4602B00CBC7047C046F0B54F464646C0B41604360C9946330005042C0C070C150C63437E436F4365431C0CAD1964199C46A64203D980235B02ED
:40134000984647446346250CEF191D044B464A4343432D0C240464199918C91920000CBC90469946F0BDC046F0B583B016001F000090019100F0A8FA04000D0002000B00BD
:4013800030003900FFF7C4FF009A019B121A8B41089920000A604B60290003B0F0BDC046F0B5564644465F464D46F0B444024600C70F83B08846650A360EBA463DD0FF2E81
:4013C00022D00023EC00802599469B46ED0425437F3E43465C025800DB0F640A000E984636D0FF2830D080230021E400DB041C437F38301A0190484642460843724E8000A8
:4014000030587A4013008746002D44D108239946063B9B46DDE70122FF2000241A406402C305640AD2071C431443200003B03CBC90469946A246AB46F0BD002D20D1042322
:401440009946033B9B46C4E7002C17D1022102E0002C0AD10121321A01924A4643460A435A48920082587B409746200000F00EFA431F76309C4040420021BAE70321B8E793
:40148000280000F003FA431F9D4000237630464299469B469DE70C239946093B9B4698E780240022E403FF20B9E70024C2468B465A465346022AAED0032A7DD0012A31D19E
:4014C000012200201A400024A9E70122101A1B2856DD1A4000200024A1E78023DB031D424BD18023DB032B435C02640A3A00FF2095E76D016001854230D2019A0024013A94
:4015000001921B220127290064006D00002901DBA84201D82D1A3C43013A002AF3D16A1E95412C4301987F300028CEDD620704D00F222240042A00D00434220103D5244AAB
:40154000019814408030FE2800DD64E70122A401640AC0B21A4062E72C00A9E72D1A1A220124CFE76B02BCD500248023DB031C436402640A4246FF2051E71C42B3D1F4E7A9
:4015800021002022C140101A8440621E94410C43620704D00F222240042A00D00434620104D5012201201A40002438E70122A401640A1A40002032E78023DB031C43640203
:4015C000640A5246FF202AE7141E0000541E0000FFFFFFF7F0B557464E4645464300E0B446028846760A1F0EC40F002F47D0FF2F25D0002380259A469946F600ED042E4307
:401600007F3F434642465D02D20F5B006D0A1B0E904640D0FF2B39D080220020ED00D20415437F3BFB1842465746591C62408C4607430F2F5CD86F49BF00C9598F46002E77
:4016400045D108239A46063B9946DAE7424602282DD0032800D1C3E0012800D0A2E0002500260240D4B27602ED05760A2E43E407264330001CBC90469946A246F0BD002E5D
:401680001AD104239A46033B9946BAE72A00511E8A41901CC6E70120002DC3D0280000F0F5F8431F76309D4043420020BAE70124FF2514400026D6E7300000F0E7F8431FCB
:4016C0009E400023763047429A46994699E70C239A46093B994694E780260024F603FF25C1E735004846B2E7350022004846AEE72904090C0800370C3604360C2C0C79436C
:40170000704367437443060C64183619B14203D980214902884647440004000C310409188D01681E8541890E2943350CED19AD010D43290104D5012369081D4063460D432E
:4017400019007F31002925DD680704D00F202840042800D00435280103D5274980330D401900FE29A3DC0124AD016E0A1440CDB279E78020C003064207D0054205D12843AE
:401780004602760A4446FF256DE706437602760AFF2568E70124611A1B2905DD14400025002660E76346CBE72E002023CE40591A8D406B1E9D412E43730704D00F2333401A
:4017C000042B00D00436730104D5012401251440002648E70124B601760A1440002542E780260124F6032E437602760A1440FF2539E7C046941E0000FFFFFFF770B50028B3
:4018000030D0C317C5185D40C40F280000F03EF89E231B1A962B0DDC9622D21A95406A02520AD8B25202C005520AE40702432243100070BD992B19DC9922D21A9540124AF0
:401840002A40690704D00F210D40042D00D00432510103D50C4B1A409F231B1A9201520AD8B2DFE7002400200022DBE705222E00121AB921D6402A00C91A8A40551EAA4127
:4018800035001543DBE7C046FFFFFFFB1C2101231B04984201D3000C10391B0A984201D3000A08391B09984201D30009043902A2105C40187047C0460403020201010101EE
:4018C0000000000000000000F0B544465F4656464D46F0B41C0083B0002900DA92E00F00002106008A4610001900002C00DA80E034003D0081468846B94269D866D04146E9
:40190000484600F0BFF883463900300000F0BAF85B461B1A9C46203B9B4600D586E04946584681400B004946604681400A00BB4200D971E06DD034003D005946A41A9D4166
:40194000002900DA89E00021002001260090019159468E400196614601268E4061460096002960D0D90756080E435F086146012200230CE0AF4201D1A6420AD8A41BBD4122
:4019800024196D410139A4185D41002906D0AF42F0D9013924196D410029F8D15B460098019900196941002B4CDB2E00DE4063462C00DC405B46002B5ADB34009C4023007F
:4019C0006446A6403200801A994103E0B04296D9002000215346002B04D003000C0000215842A14103B03CBC90469946A246AB46F0BD5346DB430C009A4613000021584291
:401A0000A14175E7002746428F41012149428A4669E7B14200D88EE70021002000900191614600299ED100980199D3E7624640462023494690409B1AD94003000091009983
:401A40000B4370E7624620239B1A2A009A40260013006246D6401E43A9E7614620260127761A00200021F74000900191019772E762462023350094409B1ADD4023002B43AE
:401A80009EE7C04610B5002903D1FFF7FFFE203002E0081CFFF7FAFE10BDC046014B18687047C046480100200E4B70B500251E000D4CE41AA410A54204D0AB00F358984781
:401AC0000135F8E700F008FA084B00251E00084CE41AA410A54204D0AB00F35898470135F8E770BDE41E0000E41E0000E41E0000EC1E0000002310B59A4203D0CC5CC4548A
:401B00000133F9E710BD03008218934202D019700133FAE77047000000000000ACFDFF7F01000000039F250D9949411F01090000496E697420737461676520697320646F2C
:401B40006E65200D0A0000005374617274696E672041444320284672656552756E6E696E67206D6F6465206F6E6C7929200D0A0000300F40000280320F40800100400F40E3
:401B80000004000000320F40641D000080000000821F000E0405060A28042A092C032E04300F38023B035440580459045B045C315D105F0180228140820485958601876ADF
:401BC000880489028A688B0D90049140921A941B9510976099F99A409B069C1B9D839F3CA01BA41BA540A804AA70AB40AC1AAD40AE01B01EB180B201B370B460B50FBA024E
:401C0000BB28BE04BF01D409D804D904DB04DC11DD10DF01000401020408050407480D020E25123213201544172119021C101D021E0421012480251026242D442F083604AC
:401C400037613C043D203E015D105E425F04601061A067018102C07CC2F0C4F3CA70CCF0CEE0D6F0D81EC023C101C250C5CEC6F0C70DC81BC9FFCAFFCBFFCC22CEF0CF484A
:401C8000D004DA04DD01DF01E2C0E440E502E610E712E8C0E902EB12EC40ED02EE40EF02051007610C020E29168017181D901E422414260227682D442E012F083604376122
:401CC0003C84401443404580472848404A814B044E0250045120568066106C026D446E216F1877018D10940C9544964197049A109F69A204A520A693A708A840AB01AD019A
:401D0000AE04B110B280B584C0F0C2F0C470CAF0CCF0CE50D07ED218D820E24060208210D840E62056105A206F088C2092209A109C20A308AE10AF08D4C0DA80EA40EE4098
:401D4000010A100A01000F4041300F4029310F401D320F403E330F4004400F400E410F4002600F400E007000ACC112380200000009820000081A010001180800089C000398
:401D800009330044C01A0000141820020902001800180002101300E0FE0F010020000028000041003205100000000B0004FFFFFF030070480400000000000224040404045C
:401DC000111100010000C00040021012C00200124002400200000000000000000000000000000000030405060708090A0B0C0E0F101112131415161718191B1C1D1E1F205E
:401E000021222325262728292A2B2E2F3031323334350000F214000016140000D4140000AC140000D4140000A0140000D4140000AC1400001614000016140000A014000074
:401E4000AC140000581500005815000058150000DA1400001614000016140000C0140000AA140000C0140000A0140000C0140000AA1400001614000016140000A014000065
:401E8000AA14000058150000581500005815000064150000F01600004E1600004E1600004C160000E2160000E2160000D81600004C160000E2160000D8160000E216000056
:401EC0004C160000E8160000E8160000E81600007217000043000000F8B5C046F8BC08BC9E467047DD02000041050000F8B5C046F8BC08BC9E467047B5020000101F000023
:401F0000C000002090000000580000000000000000000000FF10FF20FF40FF80010000000000E02EC05D00001800000000366E01F000000004040400000000000000000008
:401F4000000000000000000000000000000000000000000000000000D41E00000000000000000000000000000000000000000000000000000000000000000000000000006F
:401F8000000000000000000000000000000000000000000000000000E800002000000000000000000000000000000000000000000000000000000000000000000000000019
:401FC00000000000000000000000000000000000000000000000000000000000000000000000000000000000000000000000000000000000000000000000000000000000E1
:4020000000000000000000000000000000000000000000000000000000000000000000000000000000000000000000000000000000000000000000000000000000000000A0
:402040000000000000000000000000000000000000000000000000000000000000000000000000000000000000000000000000000000000000000000000000000000000060
:402080000000000000000000000000000000000000000000000000000000000000000000000000000000000000000000000000000000000000000000000000000000000020
:020000040003F7
:0200000490303A
:02000000B8B294
:0200000490402A
:4000000000000000000000000000000000000000000000000000000000000000000000000000000000000000000000000000000000000000000000000000000000000000C0
:400040000000000000000000000000000000000000000000000000000000000000000000000000000000000000000000000000000000000000000000000000000000000080
:0200000490501A
:0C00000000021A1711AA00011A20CA5CA5
:0200000490600A
:0100000001FE
:00000001FF